:020000040800F2
:100000000028002069180008F9170008FF170008E9
:10001000051800080B18000811180008000000005F
:100020000000000000000000000000001718000899
:1000300023180008000000002F1800083B180008D3
:10004000B1180008B1180008B1180008B11800086C
:10005000B1180008B1180008B1180008B11800085C
:10006000B1180008B1180008B1180008B11800084C
:10007000B1180008B1180008B1180008B11800083C
:10008000B1180008B1180008B1180008B11800082C
:10009000B1180008B1180008B1180008B11800081C
:1000A000B1180008B1180008B1180008B11800080C
:1000B00049180008B118000800000000B118000835
:1000C000B11800080000000000000000B11800088E
:1000D00000000000B1180008B1180008000000007E
:1000E000B1180008B1180008B1180008000000009D
:1000F0000000000000000000000000000000000000
:0C01000000000000000000005FF808F1A3
:1001100010B5054C237833B9044B13B10448AFF341
:1001200000800123237010BD60000020000000004B
:10013000F82E000808B5034B1BB103490348AFF381
:10014000008008BD0000000064000020F82E0008B8
:1001500081F0004102E000BF83F0004330B54FEA78
:1001600041044FEA430594EA050F08BF90EA020FE5
:100170001FBF54EA000C55EA020C7FEA645C7FEA78
:10018000655C00F0E2804FEA5454D4EB5555B8BF9B
:100190006D420CDD2C4480EA020281EA030382EA0C
:1001A000000083EA010180EA020281EA0303362D9E
:1001B00088BF30BD11F0004F4FEA01314FF4801C71
:1001C0004CEA113102D0404261EB410113F0004F83
:1001D0004FEA03334CEA133302D0524263EB43033A
:1001E00094EA050F00F0A780A4F10104D5F1200ED8
:1001F0000DDB02FA0EFC22FA05F2801841F1000133
:1002000003FA0EF2801843FA05F359410EE0A5F106
:1002100020050EF1200E012A03FA0EFC28BF4CF037
:10022000020C43FA05F3C01851EBE37101F00045ED
:1002300007D54FF0000EDCF1000C7EEB00006EEBFA
:100240000101B1F5801F1BD3B1F5001F0CD3490884
:100250005FEA30004FEA3C0C04F101044FEA4452DB
:1002600012F5800F80F09A80BCF1004F08BF5FEA62
:10027000500C50F1000041EB045141EA050130BD42
:100280005FEA4C0C404141EB0101013C28BFB1F554
:10029000801FE9D291F0000F04BF01460020B1FA9F
:1002A00081F308BF2033A3F10B03B3F120020CDA72
:1002B0000C3208DD02F1140CC2F10C0201FA0CF050
:1002C00021FA02F10CE002F11402D8BFC2F1200CB5
:1002D00001FA02F120FA0CFCDCBF41EA0C0190406B
:1002E000E41AA2BF01EB0451294330BD6FEA0404B4
:1002F0001F3C1CDA0C340EDC04F11404C4F120029F
:1003000020FA04F001FA02F340EA030021FA04F3B0
:1003100045EA030130BDC4F10C04C4F1200220FA07
:1003200002F001FA04F340EA0300294630BD21FA45
:1003300004F0294630BD94F0000F83F4801306BF0B
:1003400081F480110134013D4EE77FEA645C18BFFF
:100350007FEA655C29D094EA050F08BF90EA020F96
:1003600005D054EA000C04BF1946104630BD91EA8E
:10037000030F1EBF0021002030BD5FEA545C05D191
:100380004000494128BF41F0004130BD14F58004D0
:100390003CBF01F5801130BD01F0004545F0FE4144
:1003A00041F470014FF0000030BD7FEA645C1ABF79
:1003B000194610467FEA655C1CBF0B46024650EAB0
:1003C000013406BF52EA033591EA030F41F40021DC
:1003D00030BD00BF90F0000F04BF0021704730B562
:1003E0004FF4806404F132044FF000054FF0000137
:1003F00050E700BF90F0000F04BF0021704730B5F8
:100400004FF4806404F1320410F0004548BF4042CC
:100410004FF000013EE700BF42004FEAE2014FEA21
:1004200031014FEA02701FBF12F07F4393F07F4FFC
:1004300081F06051704732F07F4208BF704793F0FF
:100440007F4F04BF41F40021704730B54FF4607412
:1004500001F0004521F000411CE700BF50EA010215
:1004600008BF704730B54FF000050AE050EA0102BE
:1004700008BF704730B511F0004502D5404261EB2E
:1004800041014FF4806404F132045FEA915C3FF46F
:10049000D8AE4FF003025FEADC0C18BF03325FEA0C
:1004A000DC0C18BF033202EBDC02C2F1200300FABD
:1004B00003FC20FA02F001FA03FE40EA0E0021FAE2
:1004C00002F11444BDE600BF70B54FF0FF0C4CF4D0
:1004D000E06C1CEA11541DBF1CEA135594EA0C0F82
:1004E00095EA0C0F00F0DEF82C4481EA030621EABD
:1004F0004C5123EA4C5350EA013518BF52EA0335F8
:1005000041F4801143F4801338D0A0FB02CE4FF0A9
:100510000005E1FB02E506F00042E0FB03E54FF0D9
:100520000006E1FB03569CF0000F18BF4EF0010ED1
:10053000A4F1FF04B6F5007F64F5407404D25FEACD
:100540004E0E6D4146EB060642EAC62141EA555180
:100550004FEAC52040EA5E504FEACE2EB4F1FD0CC2
:1005600088BFBCF5E06F1ED8BEF1004F08BF5FEA40
:10057000500E50F1000041EB045170BD06F00046F2
:1005800046EA010140EA020081EA0301B4EB5C049F
:10059000C2BFD4EB0C0541EA045170BD41F4801197
:1005A0004FF0000E013C00F3AB8014F1360FDEBFBC
:1005B000002001F0004170BDC4F10004203C35DA98
:1005C0000C341BDC04F11404C4F1200500FA05F31B
:1005D00020FA04F001FA05F240EA020001F00042BC
:1005E00021F0004110EBD37021FA04F642EB060132
:1005F0005EEA430E08BF20EAD37070BDC4F10C045C
:10060000C4F1200500FA04F320FA05F001FA04F21F
:1006100040EA020001F0004110EBD37041F100010B
:100620005EEA430E08BF20EAD37070BDC4F1200516
:1006300000FA05F24EEA020E20FA04F301FA05F27E
:1006400043EA020321FA04F001F0004121FA04F226
:1006500020EA020000EBD3705EEA430E08BF20EAF6
:10066000D37070BD94F0000F0FD101F00046400030
:1006700041EB010111F4801F08BF013CF7D041EAB2
:10068000060195F0000F18BF704703F000465200B6
:1006900043EB030313F4801F08BF013DF7D043EA87
:1006A0000603704794EA0C0F0CEA135518BF95EA3D
:1006B0000C0F0CD050EA410618BF52EA4306D1D1C4
:1006C00081EA030101F000414FF0000070BD50EAE3
:1006D000410606BF1046194652EA430619D094EA6D
:1006E0000C0F02D150EA013613D195EA0C0F05D157
:1006F00052EA03361CBF104619460AD181EA0301AB
:1007000001F0004141F0FE4141F470014FF0000062
:1007100070BD41F0FE4141F4780170BD70B54FF0FD
:10072000FF0C4CF4E06C1CEA11541DBF1CEA13557D
:1007300094EA0C0F95EA0C0F00F0A7F8A4EB05045F
:1007400081EA030E52EA03354FEA013100F0888056
:100750004FEA03334FF0805545EA131343EA12631F
:100760004FEA022245EA111545EA10654FEA0026D4
:100770000EF000419D4208BF964244F1FD0404F58D
:10078000407402D25B084FEA3202B61A65EB0305E9
:100790005B084FEA32024FF480104FF4002CB6EBA6
:1007A000020E75EB030E22BFB61A754640EA0C0026
:1007B0005B084FEA3202B6EB020E75EB030E22BF66
:1007C000B61A754640EA5C005B084FEA3202B6EBA7
:1007D000020E75EB030E22BFB61A754640EA9C0066
:1007E0005B084FEA3202B6EB020E75EB030E22BF36
:1007F000B61A754640EADC0055EA060E18D04FEAF4
:10080000051545EA16754FEA06164FEAC30343EA93
:1008100052734FEAC2025FEA1C1CC0D111F4801F60
:100820000BD141EA00014FF000004FF0004CB6E759
:1008300011F4801F04BF01430020B4F1FD0C88BFF8
:10084000BCF5E06F3FF6AFAEB5EB030C04BFB6EB03
:10085000020C5FEA500C50F1000041EB045170BDF6
:100860000EF0004E4EEA113114EB5C04C2BFD4EB23
:100870000C0541EA045170BD41F480114FF0000EA7
:10088000013C90E645EA060E8DE60CEA135594EA23
:100890000C0F08BF95EA0C0F3FF43BAF94EA0C0F26
:1008A0000AD150EA01347FF434AF95EA0C0F7FF49B
:1008B00025AF104619462CE795EA0C0F06D152EAEF
:1008C00003353FF4FDAE1046194622E750EA4106D3
:1008D00018BF52EA43067FF4C5AE50EA41047FF4E4
:1008E0000DAF52EA43057FF4EBAE12E74FEA410247
:1008F00012F5001215D211D56FF47873B3EB625272
:1009000012D94FEAC12343F0004343EA505311F098
:10091000004F23FA02F018BF404270474FF000002A
:10092000704750EA013005D111F0004008BF6FF068
:10093000004070474FF00000704700BF80B483B0A4
:1009400000AF7860094A7B6852F82330012B06D14A
:10095000064A7B68002142F82310012300E00023AF
:1009600018460C37BD4680BC704700BF7C00002095
:1009700080B483B000AF7860044A7B68012142F8FC
:10098000231000BF0C37BD4680BC70477C000020A0
:1009900080B582B000AF00237B60A9E0594A7B6834
:1009A00052F8232058497B6841F82320574A7B6836
:1009B00052F8232053497B6841F823207B68002BA1
:1009C0000BD14FF40051524801F05EFA034619462C
:1009D0004E4A7B6842F823101CE07B68012B0BD148
:1009E0004FF480414A4801F04FFA03461946474AFE
:1009F0007B6842F823100DE07B68022B0AD14FF48C
:100A00000041434801F040FA034619463F4A7B68DB
:100A100042F823103B4A7B6852F823203A497B680E
:100A200051F823309A4259D1364A7B6852F8232034
:100A300036497B6851F823309A424FD1354A7B685A
:100A400052F8232031497B6851F823309A422BD049
:100A50002E4A7B6852F823202E497B6841F82320D8
:100A60002A4A7B6852F82330002B3DD17868FFF783
:100A70007FFF294A7B6852F82330002B0AD1274B8D
:100A80001B684FF4FA6292FBF3F225497B6841F848
:100A9000232029E0214B1B68FA2292FBF3F2204924
:100AA0007B6841F823201FE01D4A7B6852F8233001
:100AB0005A1E1B497B6841F82320194A7B6852F86B
:100AC0002330002B10D1134A7B68012142F82310F8
:100AD000114A7B68012142F8231005E00E4A7B6829
:100AE000002142F8231000E000BF7B6801337B60E7
:100AF0007B68022B7FF752AF00BF00BF0837BD46AF
:100B000080BD00BF0C000020000000201800002065
:100B1000000C014024000020880000203004002048
:100B20009400002080B586B000AF7860144A07F1C9
:100B3000080307CA03C31A8000237B6118E001225F
:100B40007B6902FA03F399B207F108027B68134448
:100B50001B781A467B6942FA03F3DBB203F0010308
:100B6000DBB21A46074801F0A6F97B6901337B61C5
:100B70007B69062BE3DD00BF00BF1837BD4680BD93
:100B8000102F0008000C014080B582B000AF7860E3
:100B9000814A7B6852F823301846FFF7C3FF7B6811
:100BA000052B00F2F38001A252F823F0C50B0008D8
:100BB000110C00085D0C0008A90C0008F50C0008D9
:100BC000410D0008754B01221A6000224021744833
:100BD00001F071F901228021714801F06CF90122C4
:100BE0004FF480716E4801F066F901224FF40071F4
:100BF0006B4801F060F901224FF48061684801F010
:100C00005AF901224FF40061654801F054F9BEE041
:100C1000624B02221A6001224021614801F04BF927
:100C2000002280215E4801F046F901224FF48071D4
:100C30005B4801F040F901224FF40071584801F07F
:100C40003AF901224FF48061554801F034F901224C
:100C50004FF40061524801F02EF998E04F4B032207
:100C60001A60012240214E4801F025F9012280211D
:100C70004B4801F020F900224FF48071484801F000
:100C80001AF901224FF40071454801F014F90122CC
:100C90004FF48061424801F00EF901224FF40061E7
:100CA0003F4801F008F972E03C4B04221A6001222F
:100CB00040213B4801F0FFF801228021384801F033
:100CC000FAF801224FF48071354801F0F4F800225F
:100CD0004FF40071324801F0EEF801224FF48061C8
:100CE0002F4801F0E8F801224FF400612C4801F090
:100CF000E2F84CE0294B05221A60012240212848E5
:100D000001F0D9F801228021254801F0D4F8012210
:100D10004FF48071224801F0CEF801224FF40071A7
:100D20001F4801F0C8F800224FF480611C4801F010
:100D3000C2F801224FF40061194801F0BCF826E026
:100D4000164B00221A6001224021154801F0B3F829
:100D500001228021124801F0AEF801224FF4807187
:100D60000F4801F0A8F801224FF400710C4801F07F
:100D7000A2F801224FF48061094801F09CF800229A
:100D80004FF40061064801F096F800E000BF00BF94
:100D90000837BD4680BD00BFA4000020A000002091
:100DA0000008014080B400AF2E4B1B682E4A126829
:100DB00093FBF2F102FB01F29B1A2C4A82FB031215
:100DC0009210DB17D31A2A4A1360264B1B68264A57
:100DD000126893FBF2F102FB01F2991A234B83FB99
:100DE00001239A10CB17D21A13469B0013445B00C1
:100DF000CA1A1F4B5A601F4B1B681C4A82FB031206
:100E00009210DB17D31A1A4A93601A4B1968174BC2
:100E100083FB01239A10CB17D21A13469B0013446D
:100E20005B00CA1A124BDA60134B1B680F4A82FB35
:100E300003129210DB17D31A0D4A13610E4B196877
:100E40000A4B83FB01239A10CB17D21A13469B003F
:100E500013445B00CA1A064B5A6100BFBD4680BCF2
:100E6000704700BF300000205000002067666666B3
:100E7000A4000020340000203800002080B400AF1F
:100E8000294B1B68294A82FB03129210DB17D31AE5
:100E9000274A1360244B1968244B83FB01239A10C3
:100EA000CB17D21A13469B0013445B00CA1A204B7F
:100EB0005A60204B1B681D4A82FB03129210DB17FD
:100EC000D31A1B4A93601B4B1968184B83FB0123F1
:100ED0009A10CB17D21A13469B0013445B00CA1A10
:100EE000134BDA60144B1B68A3F5FA630F4A82FBBD
:100EF00003129210DB17D31A0D4A13610E4B1B68B5
:100F0000A3F5FA61094B83FB01239A10CB17D21A80
:100F100013469B0013445B00CA1A054B5A6100BF7D
:100F2000BD4680BC704700BF44000020676666660F
:100F3000A4000020480000204C00002080B500AF35
:100F40001021024800F0CFFF00BF80BD0008014023
:100F500080B400AF164B1B680133154A1360144B65
:100F60001B683B2B07DD124B00221A60114B1B68DC
:100F70000133104A13600F4B1B683B2B07DD0D4BF1
:100F800000221A600C4B1B6801330B4A13600A4B9A
:100F90001B68172B07DD084B00221A60074B1B68E4
:100FA0000133064A136000BFBD4680BC704700BFD6
:100FB00038000020340000203000002044000020D1
:100FC00080B500AF114B1A68114B1B689A4210D1C3
:100FD000104B1A68104B1B689A420AD10F4B1A68C3
:100FE0000F4B1B689A4204D1002220210D4800F0CB
:100FF00062FF0220FFF7A2FC0346012B04D101226D
:101000002021084800F057FF00BF80BD30000020BD
:101010003C00002034000020BC00002038000020EC
:10102000400000200008014080B500AF254B1B6840
:10103000032B3DD801A252F823F000BF4D10000849
:10104000551000086D100008851000081D4B012286
:101050001A6034E0FFF7A6FE0020FFF76FFC03469E
:10106000002B27D0174B02221A6023E0FFF706FF60
:101070000020FFF763FC0346002B1DD0114B032219
:101080001A6019E0FFF78EFE0120FFF757FC0346B8
:10109000002B03D00C4B18221A600FE00220FFF740
:1010A0004DFC0346002B09D0074B0C221A6005E0CB
:1010B00000BF04E000BF02E000BF00E000BF00BFCF
:1010C00080BD00BFC00000205000002080B500AFF0
:1010D000034B1B681846FFF757FD00BF80BD00BFDC
:1010E000A000002080B500AF00F0E4FB00F03CF869
:1010F00000F002F900F074F8144801F039FB00F038
:101100006FF94FF4FA720A21114800F02DFA4FF4EA
:10111000966200210F4800F027FAC82200210E48ED
:1011200000F022FA0A2200210C4800F01DFA4FF4C8
:1011300096620A210A4800F017FA01222021094884
:1011400000F0B9FE00F0BCF9FCE700BFC8000020C9
:101150003D0F0008510F0008CD10000829100008AD
:10116000C10F00080008014080B590B000AF07F142
:10117000180328220021184601F0B6FE3B1D00226C
:101180001A605A609A60DA601A610223BB61012317
:10119000BB621023FB6200237B6307F11803184630
:1011A00000F0BAFE0346002B01D000F013F90F2324
:1011B0007B600023BB600023FB6000233B610023B6
:1011C0007B613B1D0021184601F026F90346002BE8
:1011D00001D000F0FFF800BF4037BD4680BD0000E1
:1011E000B0B586B000AF07F1080300221A605A605C
:1011F0009A60DA603B4600221A605A603A4B4FF020
:1012000080421A60384B41F63F725A60364B0022DA
:101210009A60354B0922DA60334B00221A61324B57
:1012200000229A61304801F053FA0346002B01D0A6
:1012300000F0D0F84FF48053BB6007F10803194663
:10124000294801F0E9FB0346002B01D000F0C2F869
:1012500000233B6000237B603B461946224801F097
:10126000B5FD0346002B01D000F0B4F81E4B5B68BF
:1012700001331846FFF7AEF802460B4618A1D1E934
:101280000001FFF74BFA02460B4614461D46164B6B
:10129000DB6801331846FFF79DF802460B462046EF
:1012A0002946FFF73BFA02460B464FF000000F4974
:1012B000FFF734FA02460B46104619464FF000027B
:1012C0000B4BFFF701F902460B4610461946FFF794
:1012D0000DFB0346074A136000BF1837BD46B0BD7B
:1012E0000000000080845E41C80000200000F03F44
:1012F00000408F403004002080B586B000AF07F179
:10130000080300221A605A609A60DA60284B9B69D1
:10131000274A43F004039361254B9B6903F00403C0
:101320007B607B68224B9B69214A43F008039361F1
:101330001F4B9B6903F008033B603B6800224FF49E
:101340007F611C4800F0B7FD00227F211A4800F0A1
:10135000B2FD4FF47F63BB600123FB6000233B6160
:1013600002237B6107F108031946124800F012FCC2
:101370007F23BB600123FB6000233B6102237B6171
:1013800007F1080319460C4800F004FC4FF46043D1
:10139000BB600023FB6001233B6107F10803194692
:1013A000054800F0F7FB00BF1837BD4680BD00BF01
:1013B0000010024000080140000C014080B582B0DE
:1013C00000AF786000F01CF8FFF7E2FA00BF0837C2
:1013D000BD4680BD80B400AF72B600BFFEE700001E
:1013E00080B500AF02E0002000F02EF9034B1B781F
:1013F000002BF8D100BF00BF80BD00BFC40000209B
:1014000080B483B000AF00237B6048E02A497A684B
:1014100013469B0013449B000B4404331B68002BB2
:1014200013D025497A6813469B0013449B000B4454
:1014300004331B68591E20487A6813469B001344E6
:101440009B0003440433196026E01B497A68134665
:101450009B0013449B000B440833196816487A68B4
:1014600013469B0013449B00034404331960124944
:101470007A6813469B0013449B000B440C331B7883
:101480000133D8B20C497A6813469B0013449B0081
:101490000B440C3302461A707B6801337B60074BA8
:1014A0001B781A467B689342B0DB00BF00BF0C3745
:1014B000BD4680BC704700BF10010020C400002062
:1014C00080B582B000AF00237B603DE024497A689C
:1014D00013469B0013449B000B440C331B78002BDA
:1014E0002FD01F497A6813469B0013449B000B447E
:1014F0000C331B78013BD8B219497A6813469B001C
:1015000013449B000B440C3302461A7014497A684A
:1015100013469B0013449B000B441B6898471049DB
:101520007A6813469B0013449B000B4408331B68E6
:10153000002B06D17B68184600F086F87B68013BDB
:101540007B607B6801337B60064B1B781A467B68A7
:101550009342BBDB00BF00BF0837BD4680BD00BF64
:1015600010010020C400002080B485B000AFF860F6
:10157000B9607A60314B1B78272B58D82F4B1B78DA
:1015800019462F4A0B469B000B449B001344FA68F4
:101590001A602C4B1B681A46284B1B781846BB68F0
:1015A000B3FBF2F2264903469B0003449B000B4425
:1015B00004331A60234B1B681A46204B1B781846CD
:1015C0007B68B3FBF2F21E4903469B0003449B0079
:1015D0000B4408331A60194B1B781946184A0B46FE
:1015E0009B000B449B0013440C3300221A70134BD6
:1015F0001A78124B1B7819461046114A0B469B006D
:101600000B449B001344103318600C4B1B780133C0
:10161000DAB20A4B1A70094B1B781946084A0B4676
:101620009B000B449B00134410331B6801E04FF0F8
:10163000FF3318461437BD4680BC7047C4000020F5
:10164000100100203004002080B485B000AF786025
:101650003C4B1B78002B02D07B68272B01D9FF2342
:101660006BE07B68FB604DE0FB685A1C3649134613
:101670009B0013449B000B4419683348FA681346D7
:101680009B0013449B0003441960FB685A1C2E49BD
:1016900013469B0013449B000B44043319682A48EB
:1016A000FA6813469B0013449B00034404331960FB
:1016B000FB685A1C244913469B0013449B000B44AF
:1016C000083319682048FA6813469B0013449B00AE
:1016D000034408331960FB685A1C1B4913469B00DE
:1016E00013449B000B440C3318781749FA681346CF
:1016F0009B0013449B000B440C3302461A70FB689A
:101700000133FB60FB68262BAEDD0F4B0022C3F8D4
:101710000C230D4B0022C3F810230B4B0022C3F8FF
:101720001423094B002283F81823064B1B78013B36
:10173000DAB2044B1A707B68DBB218461437BD4628
:1017400080BC7047C40000201001002080B485B028
:1017500000AF154B9B69144A43F001039361124B90
:101760009B6903F00103BB60BB680F4BDB690E4A4A
:1017700043F08053D3610C4BDB6903F080537B60F3
:101780007B680A4B5B68FB60FB6823F0E063FB60EF
:10179000FB6843F08063FB60044AFB68536000BF52
:1017A0001437BD4680BC7047001002400000014065
:1017B00080B584B000AF78607B681B68B3F1804F60
:1017C00013D10C4BDB690B4A43F00103D361094B86
:1017D000DB6903F00103FB60FB68002200211C2091
:1017E00000F0A1F91C2000F0BAF900BF1037BD4687
:1017F00080BD00BF0010024080B400AFFEE780B49F
:1018000000AFFEE780B400AFFEE780B400AFFEE7B4
:1018100080B400AFFEE780B400AF00BFBD4680BC1F
:10182000704780B400AF00BFBD4680BC704780B435
:1018300000AF00BFBD4680BC704780B500AF00F070
:101840007FF800BF80BD000080B500AF024800F007
:10185000DBFF00BF80BD00BFC800002080B400AF28
:1018600000BFBD4680BC7047FFF7F8FF0B480C492E
:101870000C4A002302E0D458C4500433C4188C42EC
:10188000F9D3094A094C002301E013600432A24253
:10189000FBD301F005FBFFF725FC7047000000209B
:1018A00060000020482F000860000020380400205D
:1018B000FEE7000080B500AF084B1B68074A43F005
:1018C00010031360032000F023F90F2000F008F844
:1018D000FFF73CFF0023184680BD00BF00200240F8
:1018E00080B582B000AF7860124B1A68124B1B783B
:1018F00019464FF47A73B3FBF1F3B2FBF3F31846D6
:1019000000F03BF90346002B01D001230EE07B6879
:101910000F2B0AD8002279684FF0FF3000F003F94E
:10192000064A7B681360002300E00123184608374D
:10193000BD4680BD540000205C00002058000020FF
:1019400080B400AF054B1B781A46054B1B68134447
:10195000034A136000BFBD4680BC70475C00002096
:101960003404002080B400AF024B1B681846BD460B
:1019700080BC70473404002080B485B000AF78602C
:101980007B6803F00703FB600C4BDB68BB60BA6845
:101990004FF6FF031340BB60FB681A02BB6813439A
:1019A00043F0BF6343F40033BB60044ABB68D360B9
:1019B00000BF1437BD4680BC704700BF00ED00E09B
:1019C00080B400AF044BDB681B0A03F00703184622
:1019D000BD4680BC704700BF00ED00E080B483B01E
:1019E00000AF0346FB7197F90730002B0BDBFB7947
:1019F00003F01F02064997F907305B09012000FA3E
:101A000002F241F8232000BF0C37BD4680BC70476E
:101A100000E100E080B483B000AF03463960FB71A1
:101A200097F90730002B0ADB3B68DAB20C4997F9CB
:101A300007301201D2B20B4483F800230AE03B685E
:101A4000DAB20849FB7903F00F03043B1201D2B26A
:101A50000B441A7600BF0C37BD4680BC704700BFF0
:101A600000E100E000ED00E080B489B000AFF86074
:101A7000B9607A60FB6803F00703FB61FB69C3F19F
:101A80000703042B28BF0423BB61FB690433062B27
:101A900002D9FB69033B00E000237B614FF0FF327A
:101AA000BB6902FA03F3DA43BB681A407B699A40C8
:101AB0004FF0FF317B6901FA03F3D9437B680B4098
:101AC000134318462437BD4680BC704780B582B0AA
:101AD00000AF78607B68013BB3F1807F01D30123C5
:101AE0000FE00A4A7B68013B53600F214FF0FF3043
:101AF000FFF790FF054B00229A60044B07221A6003
:101B0000002318460837BD4680BD00BF10E000E046
:101B100080B582B000AF78607868FFF72DFF00BF16
:101B20000837BD4680BD80B586B000AF0346B960BA
:101B30007A60FB7300237B61FFF742FF78617A686C
:101B4000B9687869FFF790FF024697F90F301146A0
:101B50001846FFF75FFF00BF1837BD4680BD80B550
:101B600082B000AF0346FB7197F907301846FFF7C4
:101B700035FF00BF0837BD4680BD80B582B000AFDD
:101B800078607868FFF7A2FF034618460837BD461D
:101B900080BD000080B48BB000AF78603960002356
:101BA0007B6200233B6248E101227B6A02FA03F375
:101BB000FB613B681B68FA691340BB61BA69FB694A
:101BC0009A4240F037813B685B68A34A93425ED0FB
:101BD000A14A934275D8A14A934258D09F4A934252
:101BE0006FD89F4A934252D09D4A934269D89D4AEA
:101BF00093424CD09B4A934263D89B4A934246D02F
:101C0000994A93425DD8122B2AD8122B59D801A297
:101C100052F823F08F1C0008691C00087B1C000888
:101C2000BD1C0008C31C0008C31C0008C31C00081E
:101C3000C31C0008C31C0008C31C0008C31C000808
:101C4000C31C0008C31C0008C31C0008C31C0008F8
:101C5000C31C0008C31C0008711C0008851C000878
:101C6000824A934213D02CE03B68DB683B6229E058
:101C70003B68DB6804333B6224E03B68DB68083385
:101C80003B621FE03B68DB680C333B621AE03B6859
:101C90009B68002B02D104233B6213E03B689B68E6
:101CA000012B05D108233B627B68FA691A6109E0C0
:101CB00008233B627B68FA695A6103E000233B62B8
:101CC00000E000BFBB69FF2B01D87B6801E07B68A7
:101CD00004337B61BB69FF2B02D87B6A9B0002E067
:101CE0007B6A083B9B003B617B691A680F213B695B
:101CF00001FA03F3DB431A40396A3B6901FA03F343
:101D00001A437B691A603B685B6803F08053002BC1
:101D100000F09080564B9B69554A43F00103936154
:101D2000534B9B6903F00103BB60BB68514A7B6A5C
:101D30009B08023352F82330FB607B6A03F00303F5
:101D40009B000F2202FA03F3DB43FA681340FB60A7
:101D50007B68494A93420DD07B68484A934207D03A
:101D60007B68474A934201D1022304E0032302E047
:101D7000012300E000237A6A02F0030292009340FC
:101D8000FA681343FB603B497B6A9B080233FA689D
:101D900041F823203B685B6803F48013002B06D0D6
:101DA000384B9A683749BB6913438B6006E0354B63
:101DB0009A68BB69DB43334913408B603B685B68BF
:101DC00003F40013002B06D02E4BDA682D49BB69B3
:101DD0001343CB6006E02B4BDA68BB69DB43294930
:101DE0001340CB603B685B6803F40033002B06D0E4
:101DF000244B5A682349BB6913434B6006E0214BCF
:101E00005A68BB69DB431F4913404B603B685B6802
:101E100003F48033002B06D01A4B1A681949BB69AA
:101E200013430B6006E0174B1A68BB69DB43154987
:101E300013400B607B6A01337B623B681A687B6AE4
:101E400022FA03F3002B7FF4AFAE00BF00BF2C37A4
:101E5000BD4680BC704700BF00003210000031104A
:101E600000002210000021100000121000001110CC
:101E7000001002400000014000080140000C014039
:101E8000001001400004014080B485B000AF7860CC
:101E90000B467B807B689A687B881340002B02D0BE
:101EA0000123FB7301E00023FB73FB7B184614370F
:101EB000BD4680BC704780B483B000AF78600B46ED
:101EC0007B8013467B707B78002B03D07A887B68FD
:101ED0001A6103E07B881A047B681A6100BF0C3723
:101EE000BD4680BC704780B485B000AF78600B46BB
:101EF0007B807B68DB68FB607A88FB6813401A0490
:101F0000FB68D9437B880B401A437B681A6100BF8A
:101F10001437BD4680BC704780B586B000AF78608E
:101F20007B68002B01D101236CE27B681B6803F006
:101F30000103002B00F08780924B5B6803F00C03D9
:101F4000042B0CD08F4B5B6803F00C03082B12D1D1
:101F50008C4B5B6803F48033B3F5803F0BD1894B26
:101F60001B6803F40033002B6CD07B685B68002B8C
:101F700068D1012346E27B685B68B3F5803F06D1F8
:101F8000804B1B687F4A43F4803313602EE07B68EC
:101F90005B68002B0CD17B4B1B687A4A23F480339F
:101FA0001360784B1B68774A23F4802313601DE08D
:101FB0007B685B68B3F5A02F0CD1724B1B68714A2C
:101FC00043F4802313606F4B1B686E4A43F48033E5
:101FD00013600BE06B4B1B686A4A23F48033136079
:101FE000684B1B68674A23F4802313607B685B6837
:101FF000002B13D0FFF7B6FC386108E0FFF7B2FC06
:1020000002463B69D31A642B01D90323FAE15D4BE5
:102010001B6803F40033002BF0D014E0FFF7A2FCA0
:10202000386108E0FFF79EFC02463B69D31A642B37
:1020300001D90323E6E1534B1B6803F40033002B63
:10204000F0D100E000BF7B681B6803F00203002BA7
:1020500063D04C4B5B6803F00C03002B0BD0494B57
:102060005B6803F00C03082B1CD1464B5B6803F440
:102070008033002B16D1434B1B6803F00203002B67
:1020800005D07B681B69012B01D00123BAE13D4BD0
:102090001B6823F0F8027B685B69DB003949134356
:1020A0000B603AE07B681B69002B20D0364B012285
:1020B0001A60FFF757FC386108E0FFF753FC02464F
:1020C0003B69D31A022B01D903239BE12D4B1B68DB
:1020D00003F00203002BF0D02A4B1B6823F0F80218
:1020E0007B685B69DB00274913430B6015E0264BD7
:1020F00000221A60FFF736FC386108E0FFF732FC77
:1021000002463B69D31A022B01D903237AE11D4B06
:102110001B6803F00203002BF0D17B681B6803F0FF
:102120000803002B3AD07B689B69002B19D0174B12
:1021300001221A60FFF716FC386108E0FFF712FC75
:1021400002463B69D31A022B01D903235AE10D4BF6
:102150005B6A03F00203002BF0D0012000F09AFA32
:102160001CE00A4B00221A60FFF7FCFB38610FE00D
:10217000FFF7F8FB02463B69D31A022B08D9032369
:1021800040E100BF00100240000042428004424291
:102190009E4B5B6A03F00203002BE9D17B681B684E
:1021A00003F00403002B00F0A6800023FB75974B7F
:1021B000DB6903F08053002B0DD1944BDB69934A0C
:1021C00043F08053D361914BDB6903F08053BB60D4
:1021D000BB680123FB758E4B1B6803F48073002BD7
:1021E00018D18B4B1B688A4A43F480731360FFF746
:1021F000B9FB386108E0FFF7B5FB02463B69D31A2B
:10220000642B01D90323FDE0814B1B6803F4807329
:10221000002BF0D07B68DB68012B06D17B4B1B6A5F
:102220007A4A43F0010313622DE07B68DB68002BE0
:102230000CD1764B1B6A754A23F001031362734B72
:102240001B6A724A23F0040313621CE07B68DB689C
:10225000052B0CD16D4B1B6A6C4A43F004031362CF
:102260006A4B1B6A694A43F0010313620BE0674B38
:102270001B6A664A23F001031362644B1B6A634ABC
:1022800023F0040313627B68DB68002B15D0FFF793
:1022900069FB38610AE0FFF765FB02463B69D31A28
:1022A00041F28832934201D90323ABE0574B1B6ABA
:1022B00003F00203002BEED014E0FFF753FB38616C
:1022C0000AE0FFF74FFB02463B69D31A41F288321E
:1022D000934201D9032395E04C4B1B6A03F00203A0
:1022E000002BEED1FB7D012B05D1484BDB69474A22
:1022F00023F08053D3617B68DB69002B00F0818081
:10230000424B5B6803F00C03082B61D07B68DB69F0
:10231000022B46D13F4B00221A60FFF723FB3861A6
:1023200008E0FFF71FFB02463B69D31A022B01D9D5
:10233000032367E0354B1B6803F00073002BF0D1DB
:102340007B681B6AB3F5803F08D1304B5B6823F490
:1023500000327B689B682D4913434B602B4B5B68B5
:1023600023F474127B68196A7B685B6A0B43274904
:1023700013434B60274B01221A60FFF7F3FA3861D1
:1023800008E0FFF7EFFA02463B69D31A022B01D9A6
:10239000032337E01D4B1B6803F00073002BF0D0C4
:1023A0002FE01C4B00221A60FFF7DCFA386108E0CE
:1023B000FFF7D8FA02463B69D31A022B01D903234F
:1023C00020E0124B1B6803F00073002BF0D118E0E3
:1023D0007B68DB69012B01D1012313E00B4B5B68A8
:1023E000FB60FB6803F480327B681B6A9A4206D16B
:1023F000FB6803F470127B685B6A9A4201D0012388
:1024000000E0002318461837BD4680BD001002408A
:10241000007000406000424280B584B000AF786038
:1024200039607B68002B01D10123D0E06A4B1B6827
:1024300003F007033A689A4210D9674B1B6823F0F0
:10244000070265493B6813430B60634B1B6803F04D
:1024500007033A689A4201D00123B8E07B681B6801
:1024600003F00203002B20D07B681B6803F00403F9
:10247000002B05D0594B5B68584A43F4E063536026
:102480007B681B6803F00803002B05D0534B5B6887
:10249000524A43F460535360504B5B6823F0F002A0
:1024A0007B689B684D4913434B607B681B6803F056
:1024B0000103002B40D07B685B68012B07D1474BA1
:1024C0001B6803F40033002B15D101237FE07B68E8
:1024D0005B68022B07D1414B1B6803F00073002B94
:1024E00009D1012373E03D4B1B6803F00203002B6D
:1024F00001D101236BE0394B5B6823F003027B6859
:102500005B68364913434B60FFF72CFAF8600AE02A
:10251000FFF728FA0246FB68D31A41F28832934249
:1025200001D9032353E02D4B5B6803F00C027B6859
:102530005B689B009A42EBD1274B1B6803F00703B3
:102540003A689A4210D2244B1B6823F007022249B2
:102550003B6813430B60204B1B6803F007033A688A
:102560009A4201D0012332E07B681B6803F0040328
:10257000002B08D0194B5B6823F4E0627B68DB68B2
:10258000164913434B607B681B6803F00803002B5C
:1025900009D0124B5B6823F460527B681B69DB0037
:1025A0000E4913434B6000F021F802460B4B5B6869
:1025B0001B0903F00F030A49CB5C22FA03F3094A13
:1025C0001360094B1B681846FFF78AF90023184669
:1025D0001037BD4680BD00BF002002400010024001
:1025E0001C2F0008540000205800002080B487B041
:1025F00000AF0023FB600023BB6000237B6100234E
:102600007B6000233B611E4B5B68FB60FB6803F053
:102610000C03042B02D0082B03D027E0194B3B619D
:1026200027E0FB689B0C03F00F03174AD35C7B6029
:10263000FB6803F48033002B10D0114B5B685B0CFC
:1026400003F00103114AD35CBB607B680D4A02FBB7
:1026500003F2BB68B2FBF3F37B6104E07B680C4AD6
:1026600002FB03F37B617B693B6102E0054B3B614D
:1026700000BF3B6918461C37BD4680BC704700BF91
:102680000010024000127A002C2F00083C2F000896
:1026900000093D0080B485B000AF78600A4B1B682C
:1026A0000A4AA2FB03235B0A7A6802FB03F3FB607E
:1026B00000BFFB685A1EFA60002BF9D100BF00BFB3
:1026C0001437BD4680BC704754000020D34D6210C3
:1026D00080B582B000AF78607B68002B01D1012308
:1026E00041E07B6893F83D30DBB2002B06D17B687C
:1026F000002283F83C207868FFF75AF87B680222B2
:1027000083F83D207B681A687B68043319461046BD
:1027100000F06EFA7B68012283F846207B68012274
:1027200083F83E207B68012283F83F207B680122EA
:1027300083F840207B68012283F841207B680122D6
:1027400083F842207B68012283F843207B680122C2
:1027500083F844207B68012283F845207B680122AE
:1027600083F83D20002318460837BD4680BD000091
:1027700080B485B000AF78607B6893F83D30DBB201
:10278000012B01D0012335E07B68022283F83D2034
:102790007B681B68DA687B681B6842F00102DA60BC
:1027A0007B681B68164A934209D07B681B68B3F1AB
:1027B000804F04D07B681B68124A934211D17B681A
:1027C0001B689B6803F00703FB60FB68062B10D0B7
:1027D0007B681B681A687B681B6842F001021A60FC
:1027E00007E07B681B681A687B681B6842F001027F
:1027F0001A60002318461437BD4680BC704700BFDE
:10280000002C01400004004080B582B000AF786029
:102810007B681B681B6903F00203022B22D17B68D3
:102820001B68DB6803F00203022B1BD17B681B686B
:102830006FF002021A617B6801221A777B681B68BD
:102840009B6903F00303002B03D0786800F0B4F910
:1028500005E0786800F0A7F9786800F0B6F97B68C1
:1028600000221A777B681B681B6903F00403042BA2
:1028700022D17B681B68DB6803F00403042B1BD1A7
:102880007B681B686FF004021A617B6802221A776A
:102890007B681B689B6903F44073002B03D0786846
:1028A00000F08AF905E0786800F07DF9786800F0BA
:1028B0008CF97B6800221A777B681B681B6903F020
:1028C0000803082B22D17B681B68DB6803F0080330
:1028D000082B1BD17B681B686FF008021A617B68AC
:1028E00004221A777B681B68DB6903F00303002B63
:1028F00003D0786800F060F905E0786800F053F9DB
:10290000786800F062F97B6800221A777B681B68A0
:102910001B6903F01003102B22D17B681B68DB6856
:1029200003F01003102B1BD17B681B686FF01002A3
:102930001A617B6808221A777B681B68DB6903F4DD
:102940004073002B03D0786800F036F905E0786812
:1029500000F029F9786800F038F97B6800221A77CE
:102960007B681B681B6903F00103012B0ED17B6898
:102970001B68DB6803F00103012B07D17B681B6830
:102980006FF001021A617868FEF718FD7B681B681A
:102990001B6903F08003802B0ED17B681B68DB680A
:1029A00003F08003802B07D17B681B686FF08002E7
:1029B0001A61786800F06BFA7B681B681B6903F08A
:1029C0004003402B0ED17B681B68DB6803F040039B
:1029D000402B07D17B681B686FF040021A61786852
:1029E00000F0FCF87B681B681B6903F02003202BB8
:1029F0000ED17B681B68DB6803F02003202B07D116
:102A00007B681B686FF020021A61786800F036FA64
:102A100000BF0837BD4680BD80B584B000AF786088
:102A200039600023FB737B6893F83C30012B01D1A4
:102A30000223B4E07B68012283F83C207B680222F9
:102A400083F83D207B681B689B68BB60BB6823F0F4
:102A50007703BB60BB6823F47F43BB607B681B6864
:102A6000BA689A603B681B68B3F5005F3ED0B3F567
:102A7000005F00F28780B3F5805F00F08680B3F5D9
:102A8000805F7FD8702B1AD0702B7BD8602B50D0F2
:102A9000602B77D8502B3CD0502B73D8402B58D07C
:102AA000402B6FD8302B64D0302B6BD8202B60D0CC
:102AB000202B67D8002B5CD0102B5AD062E07B68AB
:102AC00018683B6899683B685A683B68DB6800F0A7
:102AD0005EF97B681B689B68BB60BB6843F077034B
:102AE000BB607B681B68BA689A604FE07B681868B7
:102AF0003B6899683B685A683B68DB6800F047F9B7
:102B00007B681B689A687B681B6842F480429A6005
:102B10003CE07B6818683B6859683B68DB681A468C
:102B200000F0BEF87B681B685021184600F015F9CC
:102B30002CE07B6818683B6859683B68DB681A467C
:102B400000F0DCF87B681B686021184600F005F98E
:102B50001CE07B6818683B6859683B68DB681A466C
:102B600000F09EF87B681B684021184600F0F5F8DD
:102B70000CE07B681A683B681B681946104600F039
:102B8000ECF803E00123FB7300E000BF7B68012247
:102B900083F83D207B68002283F83C20FB7B1846AD
:102BA0001037BD4680BD80B483B000AF786000BFF1
:102BB0000C37BD4680BC704780B483B000AF7860EE
:102BC00000BF0C37BD4680BC704780B483B000AFF7
:102BD000786000BF0C37BD4680BC704780B483B0BE
:102BE00000AF786000BF0C37BD4680BC7047000066
:102BF00080B485B000AF786039607B681B68FB608B
:102C00007B68254A934207D07B68B3F1804F03D09D
:102C10007B68224A934208D1FB6823F07003FB6073
:102C20003B685B68FA681343FB607B681A4A93420F
:102C300007D07B68B3F1804F03D07B68174A93427B
:102C400008D1FB6823F44073FB603B68DB68FA68DB
:102C50001343FB60FB6823F080023B685B6913430E
:102C6000FB607B68FA681A603B689A687B68DA6286
:102C70003B681A687B689A627B68074A934203D173
:102C80003B681A697B681A637B6801225A6100BF3E
:102C90001437BD4680BC7047002C01400004004042
:102CA00080B487B000AFF860B9607A60FB681B6AD7
:102CB0007B61FB681B6A23F00102FB681A62FB68F8
:102CC0009B693B613B6923F0F0033B617B681B011F
:102CD0003A6913433B617B6923F00A037B617A699C
:102CE000BB6813437B61FB683A699A61FB687A6948
:102CF0001A6200BF1C37BD4680BC704780B487B0E5
:102D000000AFF860B9607A60FB681B6A7B61FB68A2
:102D10001B6A23F01002FB681A62FB689B693B6127
:102D20003B6923F470433B617B681B033A6913439F
:102D30003B617B6923F0A0037B61BB681B017A695F
:102D400013437B61FB683A699A61FB687A691A628E
:102D500000BF1C37BD4680BC704780B485B000AF53
:102D6000786039607B689B68FB60FB6823F07003C8
:102D7000FB603A68FB68134343F00703FB607B6822
:102D8000FA689A6000BF1437BD4680BC704780B4B3
:102D900087B000AFF860B9607A603B60FB689B6801
:102DA0007B617B6923F47F437B613B681A027B680C
:102DB0001A43BB6813437A6913437B61FB687A69E2
:102DC0009A6000BF1C37BD4680BC704780B485B098
:102DD00000AF786039607B6893F83C30012B01D1FB
:102DE000022341E07B68012283F83C207B680222B9
:102DF00083F83D207B681B685B68FB607B681B6811
:102E00009B68BB60FB6823F07003FB603B681B683A
:102E1000FA681343FB607B681B68FA685A607B683A
:102E20001B68144A934209D07B681B68B3F1804F3A
:102E300004D07B681B68104A93420CD1BB6823F016
:102E40008003BB603B685B68BA681343BB607B6808
:102E50001B68BA689A607B68012283F83D207B6812
:102E6000002283F83C20002318461437BD4680BC5E
:102E7000704700BF002C01400004004080B483B0C4
:102E800000AF786000BF0C37BD4680BC704780B48F
:102E900083B000AF786000BF0C37BD4680BC704780
:102EA00070B500260C4D0D4C641BA410A64209D130
:102EB00000F022F800260A4D0A4C641BA410A6421A
:102EC00005D170BD55F8043B98470136EEE755F83B
:102ED000043B98470136F2E7402F0008402F0008D6
:102EE000402F0008442F000803460244934200D1BB
:102EF000704703F8011BF9E7F8B500BFF8BC08BC40
:102F00009E467047F8B500BFF8BC08BC9E467047A7
:102F1000C0F9A4B0999282F88090000000000000EF
:102F2000000000000102030406070809020304056B
:102F3000060708090A0B0C0D0E0F10100102000005
:042F4000350100084F
:042F4400110100086F
:102F48000100000000000000000000000100000077
:102F58000000000000000000010000000000000068
:102F68000000000001000000000000000000000058
:102F78000B0000003B000000390000000C000000BE
:102F8800030000001F0000000C000000E70700001D
:102F9800180000000024F4001000000001000000E8
:04000005080018696E
:00000001FF
